:020000020000FC
:1000000014C0189518951895189518951895189561
:100010001895189518951895189523C01895189542
:100020001895189518951895189500240FBE0FED82
:100030000DBF03E201BB00E402BB07BA0FEF08BB30
:1000400008E006BF03E000BF0EE003BF41E011E09F
:100050008827992700E205BF01E009BF78948895B9
:10006000FECF00B30074041731F0402F11E046FFBB
:1000700012E0882799270AD02A952CBF03E027FF92
:10008000006200BF00E4032B02BB18953327112345
:1000900031F1019626B32095113081F02F7072E076
:1000A0008B39970738F472E08336970708F082FDA2
:1000B00032E0089511E088279927089522952F703E
:1000C0007DE08530970738F47BE0883B970708F0A0
:1000D00082FD31E008951127882799270895222766
:0200E000089581
:00000001FF
