:020000020000FC
:1000000014C0189518951895189518951895189561
:100010001895189518951895189527C0189518953E
:100020001895189518951895189500240FBE0FED82
:100030000DBF07E201BB00E402BB07BA0FEF08BB2C
:1000400008E006BF03E000BF0EE003BF50E060E041
:1000500012E0AA2788279927C5E3D5E000E205BF6B
:1000600001E009BF78948895FECF442700B300745F
:10007000502F60950623652F51F002E00A1B1017E0
:1000800011F012E001C011E08827992741E01CD04F
:100090002A952CBF03E027FF006200BF00E4032B7A
:1000A00002BB40FD02D0442718957EE1929A03E3FB
:1000B0000A95F1F7000000000000929803E30A950A
:1000C000F1F77A9599F708953327AA27112399F123
:1000D0000C2F0D2B11F0219701C0019626B320950E
:1000E0001130A1F02F7077E0803D970758F477E04A
:1000F0008839970728F0A1E0082F047011F04160BB
:1001000032E0089511E088279927089522952F70ED
:100110007DE08530970758F47CE08639970728F012
:10012000A1E0082F047011F0416031E0089511271B
:0E0130008827992708952227C5E3D5E0089572
:00000001FF
