:020000020000FC
:1000000014C0189518951895189518951895189561
:100010001895189518951895189525C01895189540
:100020001895189518951895189500240FBE0FED82
:100030000DBF07E201BB00E402BB07BA0FEF08BB2C
:1000400008E006BF03E000BF0EE003BF51E011E08F
:1000500088279927A5E3B5E000E205BF01E009BFC5
:1000600078948895FECF00B30074051731F0502FB7
:1000700011E056FF12E0882799271CD02A952CBF43
:1000800003E027FF006200BF00E4032B02BB40FD3A
:1000900002D0442718957EE1929A03E30A95F1F77E
:1000A000000000000000929803E30A95F1F77A95AA
:1000B00099F7089533274427112389F1A015B00536
:1000C00011F0119701C0019626B32095113099F0D7
:1000D0002F7077E0803D970750F477E088399707D5
:1000E00020F0082F047011F041E032E0089511E093
:1000F00088279927089522952F707DE085309707EE
:1001000050F47CE08639970720F0082F047011F036
:1001100041E031E008951127882799270895222783
:06012000A5E3B5E008951F
:00000001FF
